{
  "_format": "hh-sol-artifact-1",
  "contractName": "ExpenseShare",
  "sourceName": "contracts/ExpenseShare.sol",
  "abi": [
    {
      "anonymous": false,
      "inputs": [
        {
          "indexed": true,
          "internalType": "address",
          "name": "debtor",
          "type": "address"
        },
        {
          "indexed": true,
          "internalType": "address",
          "name": "creditor",
          "type": "address"
        },
        {
          "indexed": false,
          "internalType": "uint256",
          "name": "amount",
          "type": "uint256"
        }
      ],
      "name": "DebtRepaid",
      "type": "event"
    },
    {
      "anonymous": false,
      "inputs": [
        {
          "indexed": false,
          "internalType": "uint256",
          "name": "id",
          "type": "uint256"
        },
        {
          "indexed": false,
          "internalType": "uint256",
          "name": "groupId",
          "type": "uint256"
        },
        {
          "indexed": false,
          "internalType": "address",
          "name": "payer",
          "type": "address"
        },
        {
          "indexed": false,
          "internalType": "uint256",
          "name": "amount",
          "type": "uint256"
        },
        {
          "indexed": false,
          "internalType": "string",
          "name": "description",
          "type": "string"
        },
        {
          "indexed": false,
          "internalType": "address[]",
          "name": "participants",
          "type": "address[]"
        }
      ],
      "name": "ExpenseCreated",
      "type": "event"
    },
    {
      "anonymous": false,
      "inputs": [
        {
          "indexed": true,
          "internalType": "uint256",
          "name": "expenseId",
          "type": "uint256"
        },
        {
          "indexed": true,
          "internalType": "address",
          "name": "payer",
          "type": "address"
        }
      ],
      "name": "ExpenseSettled",
      "type": "event"
    },
    {
      "anonymous": false,
      "inputs": [
        {
          "indexed": false,
          "internalType": "uint256",
          "name": "id",
          "type": "uint256"
        },
        {
          "indexed": false,
          "internalType": "string",
          "name": "name",
          "type": "string"
        },
        {
          "indexed": false,
          "internalType": "address[]",
          "name": "members",
          "type": "address[]"
        }
      ],
      "name": "GroupCreated",
      "type": "event"
    },
    {
      "anonymous": false,
      "inputs": [
        {
          "indexed": true,
          "internalType": "uint256",
          "name": "groupId",
          "type": "uint256"
        },
        {
          "indexed": true,
          "internalType": "address",
          "name": "newMember",
          "type": "address"
        }
      ],
      "name": "MemberAddedToGroup",
      "type": "event"
    },
    {
      "inputs": [
        {
          "internalType": "uint256",
          "name": "_groupId",
          "type": "uint256"
        },
        {
          "internalType": "address",
          "name": "_newMember",
          "type": "address"
        }
      ],
      "name": "addMemberToGroup",
      "outputs": [],
      "stateMutability": "nonpayable",
      "type": "function"
    },
    {
      "inputs": [
        {
          "internalType": "uint256",
          "name": "_amount",
          "type": "uint256"
        },
        {
          "internalType": "string",
          "name": "_description",
          "type": "string"
        },
        {
          "internalType": "address[]",
          "name": "_participants",
          "type": "address[]"
        },
        {
          "internalType": "uint256[]",
          "name": "_shares",
          "type": "uint256[]"
        },
        {
          "internalType": "uint256",
          "name": "_groupId",
          "type": "uint256"
        }
      ],
      "name": "createExpense",
      "outputs": [],
      "stateMutability": "nonpayable",
      "type": "function"
    },
    {
      "inputs": [
        {
          "internalType": "string",
          "name": "_name",
          "type": "string"
        },
        {
          "internalType": "address[]",
          "name": "_members",
          "type": "address[]"
        }
      ],
      "name": "createGroup",
      "outputs": [],
      "stateMutability": "nonpayable",
      "type": "function"
    },
    {
      "inputs": [
        {
          "internalType": "address",
          "name": "",
          "type": "address"
        },
        {
          "internalType": "address",
          "name": "",
          "type": "address"
        }
      ],
      "name": "debts",
      "outputs": [
        {
          "internalType": "uint256",
          "name": "",
          "type": "uint256"
        }
      ],
      "stateMutability": "view",
      "type": "function"
    },
    {
      "inputs": [],
      "name": "expenseCount",
      "outputs": [
        {
          "internalType": "uint256",
          "name": "",
          "type": "uint256"
        }
      ],
      "stateMutability": "view",
      "type": "function"
    },
    {
      "inputs": [
        {
          "internalType": "uint256",
          "name": "",
          "type": "uint256"
        }
      ],
      "name": "expenses",
      "outputs": [
        {
          "internalType": "uint256",
          "name": "id",
          "type": "uint256"
        },
        {
          "internalType": "uint256",
          "name": "groupId",
          "type": "uint256"
        },
        {
          "internalType": "address",
          "name": "payer",
          "type": "address"
        },
        {
          "internalType": "uint256",
          "name": "amount",
          "type": "uint256"
        },
        {
          "internalType": "string",
          "name": "description",
          "type": "string"
        },
        {
          "internalType": "bool",
          "name": "isSettled",
          "type": "bool"
        }
      ],
      "stateMutability": "view",
      "type": "function"
    },
    {
      "inputs": [
        {
          "internalType": "address",
          "name": "_debtor",
          "type": "address"
        },
        {
          "internalType": "address",
          "name": "_creditor",
          "type": "address"
        }
      ],
      "name": "getDebtBetween",
      "outputs": [
        {
          "internalType": "uint256",
          "name": "",
          "type": "uint256"
        }
      ],
      "stateMutability": "view",
      "type": "function"
    },
    {
      "inputs": [
        {
          "internalType": "uint256",
          "name": "_expenseId",
          "type": "uint256"
        }
      ],
      "name": "getExpense",
      "outputs": [
        {
          "internalType": "uint256",
          "name": "id",
          "type": "uint256"
        },
        {
          "internalType": "uint256",
          "name": "groupId",
          "type": "uint256"
        },
        {
          "internalType": "address",
          "name": "payer",
          "type": "address"
        },
        {
          "internalType": "uint256",
          "name": "amount",
          "type": "uint256"
        },
        {
          "internalType": "string",
          "name": "description",
          "type": "string"
        },
        {
          "internalType": "address[]",
          "name": "participants",
          "type": "address[]"
        },
        {
          "internalType": "bool",
          "name": "isSettled",
          "type": "bool"
        }
      ],
      "stateMutability": "view",
      "type": "function"
    },
    {
      "inputs": [
        {
          "internalType": "uint256",
          "name": "_groupId",
          "type": "uint256"
        }
      ],
      "name": "getGroup",
      "outputs": [
        {
          "internalType": "uint256",
          "name": "id",
          "type": "uint256"
        },
        {
          "internalType": "string",
          "name": "name",
          "type": "string"
        },
        {
          "internalType": "address[]",
          "name": "members",
          "type": "address[]"
        },
        {
          "internalType": "uint256[]",
          "name": "expenseIds",
          "type": "uint256[]"
        }
      ],
      "stateMutability": "view",
      "type": "function"
    },
    {
      "inputs": [
        {
          "internalType": "uint256",
          "name": "_expenseId",
          "type": "uint256"
        },
        {
          "internalType": "address",
          "name": "_user",
          "type": "address"
        }
      ],
      "name": "getUserShare",
      "outputs": [
        {
          "internalType": "uint256",
          "name": "",
          "type": "uint256"
        }
      ],
      "stateMutability": "view",
      "type": "function"
    },
    {
      "inputs": [],
      "name": "groupCount",
      "outputs": [
        {
          "internalType": "uint256",
          "name": "",
          "type": "uint256"
        }
      ],
      "stateMutability": "view",
      "type": "function"
    },
    {
      "inputs": [
        {
          "internalType": "uint256",
          "name": "",
          "type": "uint256"
        },
        {
          "internalType": "uint256",
          "name": "",
          "type": "uint256"
        }
      ],
      "name": "groupExpenses",
      "outputs": [
        {
          "internalType": "uint256",
          "name": "",
          "type": "uint256"
        }
      ],
      "stateMutability": "view",
      "type": "function"
    },
    {
      "inputs": [
        {
          "internalType": "uint256",
          "name": "",
          "type": "uint256"
        }
      ],
      "name": "groups",
      "outputs": [
        {
          "internalType": "uint256",
          "name": "id",
          "type": "uint256"
        },
        {
          "internalType": "string",
          "name": "name",
          "type": "string"
        },
        {
          "internalType": "bool",
          "name": "isActive",
          "type": "bool"
        }
      ],
      "stateMutability": "view",
      "type": "function"
    },
    {
      "inputs": [
        {
          "internalType": "address",
          "name": "_creditor",
          "type": "address"
        },
        {
          "internalType": "uint256",
          "name": "_amount",
          "type": "uint256"
        }
      ],
      "name": "repayDebt",
      "outputs": [],
      "stateMutability": "payable",
      "type": "function"
    },
    {
      "inputs": [
        {
          "internalType": "uint256",
          "name": "_expenseId",
          "type": "uint256"
        }
      ],
      "name": "settleExpense",
      "outputs": [],
      "stateMutability": "nonpayable",
      "type": "function"
    }
  ],
  "bytecode": "0x6080604052600080556000600155348015601857600080fd5b5061197b806100286000396000f3fe6080604052600436106100b85760003560e01c80630ea5e462146100bd5780631ce56ba6146100f05780634ac1c33d1461011057806352e7df5d14610148578063735e5db61461015e57806379e20bdc146101915780638f23b326146101a657806396324bd4146101bc578063a5d5329b146101eb578063af4afe0a14610231578063c0a7540b14610263578063ceb6065414610283578063cfbe575c146102b3578063e2b17b4b146102d3578063ffa5431c146102f3575b600080fd5b3480156100c957600080fd5b506100dd6100d836600461115e565b610313565b6040519081526020015b60405180910390f35b3480156100fc57600080fd5b506100dd61010b36600461118a565b6103a6565b34801561011c57600080fd5b506100dd61012b3660046111ac565b600560209081526000928352604080842090915290825290205481565b34801561015457600080fd5b506100dd60005481565b34801561016a57600080fd5b5061017e6101793660046111d6565b6103d7565b6040516100e7979695949392919061127a565b6101a461019f3660046112d6565b61052c565b005b3480156101b257600080fd5b506100dd60015481565b3480156101c857600080fd5b506101dc6101d73660046111d6565b610789565b6040516100e793929190611300565b3480156101f757600080fd5b506100dd6102063660046111ac565b6001600160a01b03918216600090815260056020908152604080832093909416825291909152205490565b34801561023d57600080fd5b5061025161024c3660046111d6565b610837565b6040516100e79695949392919061132b565b34801561026f57600080fd5b506101a461027e3660046111d6565b610906565b34801561028f57600080fd5b506102a361029e3660046111d6565b610a10565b6040516100e79493929190611373565b3480156102bf57600080fd5b506101a46102ce366004611531565b610b89565b3480156102df57600080fd5b506101a46102ee366004611598565b610c84565b3480156102ff57600080fd5b506101a461030e36600461115e565b610fef565b6000828152600360205260408120815b600582015481101561039957836001600160a01b031682600501828154811061034e5761034e611694565b6000918252602090912001546001600160a01b0316036103915781600601818154811061037d5761037d611694565b9060005260206000200154925050506103a0565b600101610323565b5060009150505b92915050565b600460205281600052604060002081815481106103c257600080fd5b90600052602060002001600091509150505481565b6000818152600360208190526040822080546001820154600283015493830154600784015460048501805488978897889760609788978a979396929591946001600160a01b031693909291600588019160ff16908390610436906116aa565b80601f0160208091040260200160405190810160405280929190818152602001828054610462906116aa565b80156104af5780601f10610484576101008083540402835291602001916104af565b820191906000526020600020905b81548152906001019060200180831161049257829003601f168201915b505050505092508180548060200260200160405190810160405280929190818152602001828054801561050b57602002820191906000526020600020905b81546001600160a01b031681526001909101906020018083116104ed575b50505050509150975097509750975097509750975050919395979092949650565b6001600160a01b0382166105825760405162461bcd60e51b8152602060048201526018602482015277496e76616c6964206372656469746f72206164647265737360401b60448201526064015b60405180910390fd5b600081116105a25760405162461bcd60e51b8152600401610579906116e4565b3360009081526005602090815260408083206001600160a01b038616845290915290205481111561060b5760405162461bcd60e51b8152602060048201526013602482015272105b5bdd5b9d08195e18d959591cc81919589d606a1b6044820152606401610579565b80341461066d5760405162461bcd60e51b815260206004820152602a60248201527f53656e7420616d6f756e7420646f6573206e6f74206d6174636820616d6f756e6044820152697420746f20726570617960b01b6064820152608401610579565b3360009081526005602090815260408083206001600160a01b0386168452909152812080548392906106a090849061172f565b90915550506040516000906001600160a01b0384169083908381818185875af1925050503d80600081146106f0576040519150601f19603f3d011682016040523d82523d6000602084013e6106f5565b606091505b50509050806107445760405162461bcd60e51b815260206004820152601b60248201527a151c985b9cd9995c881d1bc818dc99591a5d1bdc8819985a5b1959602a1b6044820152606401610579565b6040518281526001600160a01b0384169033907feef1a28252f7c3266ccea3202ee9693f0834485bc3551310a406e04829c7e2cf9060200160405180910390a3505050565b600260205260009081526040902080546001820180549192916107ab906116aa565b80601f01602080910402602001604051908101604052809291908181526020018280546107d7906116aa565b80156108245780601f106107f957610100808354040283529160200191610824565b820191906000526020600020905b81548152906001019060200180831161080757829003601f168201915b5050506003909301549192505060ff1683565b600360208190526000918252604090912080546001820154600283015493830154600484018054939592946001600160a01b039093169391929161087a906116aa565b80601f01602080910402602001604051908101604052809291908181526020018280546108a6906116aa565b80156108f35780601f106108c8576101008083540402835291602001916108f3565b820191906000526020600020905b8154815290600101906020018083116108d657829003601f168201915b5050506007909301549192505060ff1686565b6000818152600360205260409020600781015460ff16156109665760405162461bcd60e51b815260206004820152601a602482015279115e1c195b9cd9481a5cc8185b1c9958591e481cd95d1d1b195960321b6044820152606401610579565b60028101546001600160a01b031633146109d05760405162461bcd60e51b815260206004820152602560248201527f4f6e6c79207468652070617965722063616e20736574746c652074686520657860448201526470656e736560d81b6064820152608401610579565b60078101805460ff19166001179055604051339083907f90b1c950bb4e0d689c0164f9f527af58d7069572b37c28705ab4cb07079b91ce90600090a35050565b6000606080606060006002600087815260200190815260200160002090508060000154816001018260020183600401828054610a4b906116aa565b80601f0160208091040260200160405190810160405280929190818152602001828054610a77906116aa565b8015610ac45780601f10610a9957610100808354040283529160200191610ac4565b820191906000526020600020905b815481529060010190602001808311610aa757829003601f168201915b5050505050925081805480602002602001604051908101604052809291908181526020018280548015610b2057602002820191906000526020600020905b81546001600160a01b03168152600190910190602001808311610b02575b5050505050915080805480602002602001604051908101604052809291908181526020018280548015610b7257602002820191906000526020600020905b815481526020019060010190808311610b5e575b505050505090509450945094509450509193509193565b6000815111610be65760405162461bcd60e51b815260206004820152602360248201527f47726f7570206d7573742068617665206174206c65617374206f6e65206d656d6044820152623132b960e91b6064820152608401610579565b60018054906000610bf683611742565b9091555050600180546000818152600260205260409020908155908101610c1d84826117aa565b508151610c33906002830190602085019061108d565b5060038101805460ff1916600117905580546040517fdcaff575ef76f47649a61504175df180ccee594cb97cefdf450012ba8260f9a691610c779186908690611868565b60405180910390a1505050565b60008511610ca45760405162461bcd60e51b8152600401610579906116e4565b6000835111610d045760405162461bcd60e51b815260206004820152602660248201527f5468657265206d757374206265206174206c65617374206f6e6520706172746960448201526518da5c185b9d60d21b6064820152608401610579565b60008181526002602052604090206003015460ff16610d355760405162461bcd60e51b81526004016105799061189d565b8151835114610d965760405162461bcd60e51b815260206004820152602760248201527f5061727469636970616e747320616e6420736861726573206c656e677468206d6044820152660d2e6dac2e8c6d60cb1b6064820152608401610579565b6000805b8351811015610dd257838181518110610db557610db5611694565b602002602001015182610dc891906118e0565b9150600101610d9a565b50858114610e2d5760405162461bcd60e51b815260206004820152602260248201527f546f74616c20736861726573206d75737420657175616c2074686520616d6f756044820152611b9d60f21b6064820152608401610579565b600080549080610e3c83611742565b909155505060008054808252600360208190526040909220908155600181018490556002810180546001600160a01b0319163317905590810187905560048101610e8687826117aa565b508451610e9c906005830190602088019061108d565b508351610eb290600683019060208701906110f2565b5060078101805460ff1916905560005b8551811015610f63576000868281518110610edf57610edf611694565b602002602001015190506000868381518110610efd57610efd611694565b60200260200101519050336001600160a01b0316826001600160a01b031614610f59576001600160a01b038216600090815260056020908152604080832033845290915281208054839290610f539084906118e0565b90915550505b5050600101610ec2565b506000838152600460208181526040808420845481546001818101845592875284872001558785526002835281852085549401805491820181558552919093200155815490517f8ce5e7234bed229fd5f0c86a4d076e8c3b5d8e555bcbb03bf7d097673f11450191610fde91869033908c908c908c906118f3565b60405180910390a150505050505050565b60008281526002602052604090206003015460ff166110205760405162461bcd60e51b81526004016105799061189d565b600082815260026020818152604080842090920180546001810182559084529083200180546001600160a01b0319166001600160a01b0385169081179091559051909184917f8687f797d234fb59c25420d127fa79ab62b2395085c93cca00b3001119c465b09190a35050565b8280548282559060005260206000209081019282156110e2579160200282015b828111156110e257825182546001600160a01b0319166001600160a01b039091161782556020909201916001909101906110ad565b506110ee92915061112d565b5090565b8280548282559060005260206000209081019282156110e2579160200282015b828111156110e2578251825591602001919060010190611112565b5b808211156110ee576000815560010161112e565b80356001600160a01b038116811461115957600080fd5b919050565b6000806040838503121561117157600080fd5b8235915061118160208401611142565b90509250929050565b6000806040838503121561119d57600080fd5b50508035926020909101359150565b600080604083850312156111bf57600080fd5b6111c883611142565b915061118160208401611142565b6000602082840312156111e857600080fd5b5035919050565b6000815180845260005b81811015611215576020818501810151868301820152016111f9565b506000602082860101526020601f19601f83011685010191505092915050565b600081518084526020840193506020830160005b828110156112705781516001600160a01b0316865260209586019590910190600101611249565b5093949350505050565b87815286602082015260018060a01b038616604082015284606082015260e0608082015260006112ad60e08301866111ef565b82810360a08401526112bf8186611235565b91505082151560c083015298975050505050505050565b600080604083850312156112e957600080fd5b6112f283611142565b946020939093013593505050565b83815260606020820152600061131960608301856111ef565b90508215156040830152949350505050565b86815285602082015260018060a01b038516604082015283606082015260c06080820152600061135e60c08301856111ef565b905082151560a0830152979650505050505050565b84815260806020820152600061138c60808301866111ef565b828103604084015261139e8186611235565b83810360608501528451808252602080870193509091019060005b818110156113d75783518352602093840193909201916001016113b9565b509098975050505050505050565b634e487b7160e01b600052604160045260246000fd5b604051601f8201601f191681016001600160401b0381118282101715611423576114236113e5565b604052919050565b600082601f83011261143c57600080fd5b81356001600160401b03811115611455576114556113e5565b611468601f8201601f19166020016113fb565b81815284602083860101111561147d57600080fd5b816020850160208301376000918101602001919091529392505050565b60006001600160401b038211156114b3576114b36113e5565b5060051b60200190565b600082601f8301126114ce57600080fd5b81356114e16114dc8261149a565b6113fb565b8082825260208201915060208360051b86010192508583111561150357600080fd5b602085015b838110156115275761151981611142565b835260209283019201611508565b5095945050505050565b6000806040838503121561154457600080fd5b82356001600160401b0381111561155a57600080fd5b6115668582860161142b565b92505060208301356001600160401b0381111561158257600080fd5b61158e858286016114bd565b9150509250929050565b600080600080600060a086880312156115b057600080fd5b8535945060208601356001600160401b038111156115cd57600080fd5b6115d98882890161142b565b94505060408601356001600160401b038111156115f557600080fd5b611601888289016114bd565b93505060608601356001600160401b0381111561161d57600080fd5b8601601f8101881361162e57600080fd5b803561163c6114dc8261149a565b8082825260208201915060208360051b85010192508a83111561165e57600080fd5b6020840193505b82841015611680578335825260209384019390910190611665565b979a96995094976080013595945050505050565b634e487b7160e01b600052603260045260246000fd5b600181811c908216806116be57607f821691505b6020821081036116de57634e487b7160e01b600052602260045260246000fd5b50919050565b6020808252818101527f416d6f756e74206d7573742062652067726561746572207468616e207a65726f604082015260600190565b634e487b7160e01b600052601160045260246000fd5b818103818111156103a0576103a0611719565b60006001820161175457611754611719565b5060010190565b601f8211156117a557806000526020600020601f840160051c810160208510156117825750805b601f840160051c820191505b818110156117a2576000815560010161178e565b50505b505050565b81516001600160401b038111156117c3576117c36113e5565b6117d7816117d184546116aa565b8461175b565b6020601f82116001811461180b57600083156117f35750848201515b600019600385901b1c1916600184901b1784556117a2565b600084815260208120601f198516915b8281101561183b578785015182556020948501946001909201910161181b565b50848210156118595786840151600019600387901b60f8161c191681555b50505050600190811b01905550565b83815260606020820152600061188160608301856111ef565b82810360408401526118938185611235565b9695505050505050565b60208082526023908201527f47726f757020646f6573206e6f74206578697374206f7220697320696e61637460408201526269766560e81b606082015260800190565b808201808211156103a0576103a0611719565b86815285602082015260018060a01b038516604082015283606082015260c06080820152600061192660c08301856111ef565b82810360a08401526119388185611235565b999850505050505050505056fea2646970667358221220cc8334f2f1a5bb1a32b58f4651374889311a18def77a9af7563152b16d1613b364736f6c634300081a0033",
  "linkReferences": {},
  "deployedLinkReferences": {}
}