{
  "_format": "hh-sol-artifact-1",
  "contractName": "ExpenseShare",
  "sourceName": "contracts/ExpenseShare.sol",
  "abi": [
    {
      "anonymous": false,
      "inputs": [
        {
          "indexed": false,
          "internalType": "uint256",
          "name": "id",
          "type": "uint256"
        },
        {
          "indexed": false,
          "internalType": "uint256",
          "name": "groupId",
          "type": "uint256"
        },
        {
          "indexed": false,
          "internalType": "address",
          "name": "payer",
          "type": "address"
        },
        {
          "indexed": false,
          "internalType": "uint256",
          "name": "amount",
          "type": "uint256"
        },
        {
          "indexed": false,
          "internalType": "string",
          "name": "description",
          "type": "string"
        },
        {
          "indexed": false,
          "internalType": "address[]",
          "name": "participants",
          "type": "address[]"
        }
      ],
      "name": "ExpenseCreated",
      "type": "event"
    },
    {
      "anonymous": false,
      "inputs": [
        {
          "indexed": true,
          "internalType": "uint256",
          "name": "expenseId",
          "type": "uint256"
        },
        {
          "indexed": true,
          "internalType": "address",
          "name": "payer",
          "type": "address"
        }
      ],
      "name": "ExpenseSettled",
      "type": "event"
    },
    {
      "anonymous": false,
      "inputs": [
        {
          "indexed": false,
          "internalType": "uint256",
          "name": "id",
          "type": "uint256"
        },
        {
          "indexed": false,
          "internalType": "string",
          "name": "name",
          "type": "string"
        },
        {
          "indexed": false,
          "internalType": "address[]",
          "name": "members",
          "type": "address[]"
        }
      ],
      "name": "GroupCreated",
      "type": "event"
    },
    {
      "anonymous": false,
      "inputs": [
        {
          "indexed": true,
          "internalType": "uint256",
          "name": "groupId",
          "type": "uint256"
        },
        {
          "indexed": true,
          "internalType": "address",
          "name": "newMember",
          "type": "address"
        }
      ],
      "name": "MemberAddedToGroup",
      "type": "event"
    },
    {
      "inputs": [
        {
          "internalType": "uint256",
          "name": "_groupId",
          "type": "uint256"
        },
        {
          "internalType": "address",
          "name": "_newMember",
          "type": "address"
        }
      ],
      "name": "addMemberToGroup",
      "outputs": [],
      "stateMutability": "nonpayable",
      "type": "function"
    },
    {
      "inputs": [
        {
          "internalType": "uint256",
          "name": "_amount",
          "type": "uint256"
        },
        {
          "internalType": "string",
          "name": "_description",
          "type": "string"
        },
        {
          "internalType": "address[]",
          "name": "_participants",
          "type": "address[]"
        },
        {
          "internalType": "uint256[]",
          "name": "_shares",
          "type": "uint256[]"
        },
        {
          "internalType": "uint256",
          "name": "_groupId",
          "type": "uint256"
        }
      ],
      "name": "createExpense",
      "outputs": [],
      "stateMutability": "nonpayable",
      "type": "function"
    },
    {
      "inputs": [
        {
          "internalType": "string",
          "name": "_name",
          "type": "string"
        },
        {
          "internalType": "address[]",
          "name": "_members",
          "type": "address[]"
        }
      ],
      "name": "createGroup",
      "outputs": [],
      "stateMutability": "nonpayable",
      "type": "function"
    },
    {
      "inputs": [],
      "name": "expenseCount",
      "outputs": [
        {
          "internalType": "uint256",
          "name": "",
          "type": "uint256"
        }
      ],
      "stateMutability": "view",
      "type": "function"
    },
    {
      "inputs": [
        {
          "internalType": "uint256",
          "name": "",
          "type": "uint256"
        }
      ],
      "name": "expenses",
      "outputs": [
        {
          "internalType": "uint256",
          "name": "id",
          "type": "uint256"
        },
        {
          "internalType": "uint256",
          "name": "groupId",
          "type": "uint256"
        },
        {
          "internalType": "address",
          "name": "payer",
          "type": "address"
        },
        {
          "internalType": "uint256",
          "name": "amount",
          "type": "uint256"
        },
        {
          "internalType": "string",
          "name": "description",
          "type": "string"
        },
        {
          "internalType": "bool",
          "name": "isSettled",
          "type": "bool"
        }
      ],
      "stateMutability": "view",
      "type": "function"
    },
    {
      "inputs": [
        {
          "internalType": "uint256",
          "name": "_expenseId",
          "type": "uint256"
        }
      ],
      "name": "getExpense",
      "outputs": [
        {
          "internalType": "uint256",
          "name": "id",
          "type": "uint256"
        },
        {
          "internalType": "address",
          "name": "payer",
          "type": "address"
        },
        {
          "internalType": "uint256",
          "name": "amount",
          "type": "uint256"
        },
        {
          "internalType": "string",
          "name": "description",
          "type": "string"
        },
        {
          "internalType": "address[]",
          "name": "participants",
          "type": "address[]"
        },
        {
          "internalType": "uint256",
          "name": "groupId",
          "type": "uint256"
        },
        {
          "internalType": "bool",
          "name": "isSettled",
          "type": "bool"
        }
      ],
      "stateMutability": "view",
      "type": "function"
    },
    {
      "inputs": [
        {
          "internalType": "uint256",
          "name": "_groupId",
          "type": "uint256"
        }
      ],
      "name": "getGroup",
      "outputs": [
        {
          "internalType": "uint256",
          "name": "id",
          "type": "uint256"
        },
        {
          "internalType": "string",
          "name": "name",
          "type": "string"
        },
        {
          "internalType": "address[]",
          "name": "members",
          "type": "address[]"
        },
        {
          "internalType": "uint256[]",
          "name": "expenseIds",
          "type": "uint256[]"
        }
      ],
      "stateMutability": "view",
      "type": "function"
    },
    {
      "inputs": [
        {
          "internalType": "uint256",
          "name": "_expenseId",
          "type": "uint256"
        },
        {
          "internalType": "address",
          "name": "_user",
          "type": "address"
        }
      ],
      "name": "getUserShare",
      "outputs": [
        {
          "internalType": "uint256",
          "name": "",
          "type": "uint256"
        }
      ],
      "stateMutability": "view",
      "type": "function"
    },
    {
      "inputs": [],
      "name": "groupCount",
      "outputs": [
        {
          "internalType": "uint256",
          "name": "",
          "type": "uint256"
        }
      ],
      "stateMutability": "view",
      "type": "function"
    },
    {
      "inputs": [
        {
          "internalType": "uint256",
          "name": "",
          "type": "uint256"
        },
        {
          "internalType": "uint256",
          "name": "",
          "type": "uint256"
        }
      ],
      "name": "groupExpenses",
      "outputs": [
        {
          "internalType": "uint256",
          "name": "",
          "type": "uint256"
        }
      ],
      "stateMutability": "view",
      "type": "function"
    },
    {
      "inputs": [
        {
          "internalType": "uint256",
          "name": "",
          "type": "uint256"
        }
      ],
      "name": "groups",
      "outputs": [
        {
          "internalType": "uint256",
          "name": "id",
          "type": "uint256"
        },
        {
          "internalType": "string",
          "name": "name",
          "type": "string"
        },
        {
          "internalType": "bool",
          "name": "isActive",
          "type": "bool"
        }
      ],
      "stateMutability": "view",
      "type": "function"
    },
    {
      "inputs": [
        {
          "internalType": "uint256",
          "name": "_expenseId",
          "type": "uint256"
        }
      ],
      "name": "settleExpense",
      "outputs": [],
      "stateMutability": "nonpayable",
      "type": "function"
    }
  ],
  "bytecode": "0x6080604052600080556000600155348015601857600080fd5b506114d1806100286000396000f3fe608060405234801561001057600080fd5b50600436106100a45760003560e01c80630ea5e462146100a95780631ce56ba6146100cf57806352e7df5d146100e2578063735e5db6146100eb5780638f23b3261461011157806396324bd41461011a578063af4afe0a1461013c578063c0a7540b14610161578063ceb6065414610176578063cfbe575c14610199578063e2b17b4b146101ac578063ffa5431c146101bf575b600080fd5b6100bc6100b7366004610d51565b6101d2565b6040519081526020015b60405180910390f35b6100bc6100dd366004610d7d565b610265565b6100bc60005481565b6100fe6100f9366004610d9f565b610296565b6040516100c69796959493929190610e43565b6100bc60015481565b61012d610128366004610d9f565b6103ec565b6040516100c693929190610e9e565b61014f61014a366004610d9f565b61049a565b6040516100c696959493929190610ec9565b61017461016f366004610d9f565b610569565b005b610189610184366004610d9f565b610678565b6040516100c69493929190610f11565b6101746101a73660046110cf565b6107f1565b6101746101ba366004611136565b6108ec565b6101746101cd366004610d51565b610be2565b6000828152600360205260408120815b600582015481101561025857836001600160a01b031682600501828154811061020d5761020d611232565b6000918252602090912001546001600160a01b0316036102505781600601818154811061023c5761023c611232565b90600052602060002001549250505061025f565b6001016101e2565b5060009150505b92915050565b6004602052816000526040600020818154811061028157600080fd5b90600052602060002001600091509150505481565b600081815260036020819052604082208054600282015492820154600183015460078401546004850180548897889760609788978a978897939692956001600160a01b03909516949193600588019260ff9091169084906102f690611248565b80601f016020809104026020016040519081016040528092919081815260200182805461032290611248565b801561036f5780601f106103445761010080835404028352916020019161036f565b820191906000526020600020905b81548152906001019060200180831161035257829003601f168201915b50505050509350828054806020026020016040519081016040528092919081815260200182805480156103cb57602002820191906000526020600020905b81546001600160a01b031681526001909101906020018083116103ad575b50505050509250975097509750975097509750975050919395979092949650565b6002602052600090815260409020805460018201805491929161040e90611248565b80601f016020809104026020016040519081016040528092919081815260200182805461043a90611248565b80156104875780601f1061045c57610100808354040283529160200191610487565b820191906000526020600020905b81548152906001019060200180831161046a57829003601f168201915b5050506003909301549192505060ff1683565b600360208190526000918252604090912080546001820154600283015493830154600484018054939592946001600160a01b03909316939192916104dd90611248565b80601f016020809104026020016040519081016040528092919081815260200182805461050990611248565b80156105565780601f1061052b57610100808354040283529160200191610556565b820191906000526020600020905b81548152906001019060200180831161053957829003601f168201915b5050506007909301549192505060ff1686565b6000818152600360205260409020600781015460ff16156105ce5760405162461bcd60e51b815260206004820152601a602482015279115e1c195b9cd9481a5cc8185b1c9958591e481cd95d1d1b195960321b60448201526064015b60405180910390fd5b60028101546001600160a01b031633146106385760405162461bcd60e51b815260206004820152602560248201527f4f6e6c79207468652070617965722063616e20736574746c652074686520657860448201526470656e736560d81b60648201526084016105c5565b60078101805460ff19166001179055604051339083907f90b1c950bb4e0d689c0164f9f527af58d7069572b37c28705ab4cb07079b91ce90600090a35050565b60006060806060600060026000878152602001908152602001600020905080600001548160010182600201836004018280546106b390611248565b80601f01602080910402602001604051908101604052809291908181526020018280546106df90611248565b801561072c5780601f106107015761010080835404028352916020019161072c565b820191906000526020600020905b81548152906001019060200180831161070f57829003601f168201915b505050505092508180548060200260200160405190810160405280929190818152602001828054801561078857602002820191906000526020600020905b81546001600160a01b0316815260019091019060200180831161076a575b50505050509150808054806020026020016040519081016040528092919081815260200182805480156107da57602002820191906000526020600020905b8154815260200190600101908083116107c6575b505050505090509450945094509450509193509193565b600081511161084e5760405162461bcd60e51b815260206004820152602360248201527f47726f7570206d7573742068617665206174206c65617374206f6e65206d656d6044820152623132b960e91b60648201526084016105c5565b6001805490600061085e83611298565b90915550506001805460008181526002602052604090209081559081016108858482611300565b50815161089b9060028301906020850190610c80565b5060038101805460ff1916600117905580546040517fdcaff575ef76f47649a61504175df180ccee594cb97cefdf450012ba8260f9a6916108df91869086906113be565b60405180910390a1505050565b6000851161093c5760405162461bcd60e51b815260206004820181905260248201527f416d6f756e74206d7573742062652067726561746572207468616e207a65726f60448201526064016105c5565b600083511161099c5760405162461bcd60e51b815260206004820152602660248201527f5468657265206d757374206265206174206c65617374206f6e6520706172746960448201526518da5c185b9d60d21b60648201526084016105c5565b60008181526002602052604090206003015460ff166109cd5760405162461bcd60e51b81526004016105c5906113f3565b8151835114610a2e5760405162461bcd60e51b815260206004820152602760248201527f5061727469636970616e747320616e6420736861726573206c656e677468206d6044820152660d2e6dac2e8c6d60cb1b60648201526084016105c5565b6000805b8351811015610a6a57838181518110610a4d57610a4d611232565b602002602001015182610a609190611436565b9150600101610a32565b50858114610ac55760405162461bcd60e51b815260206004820152602260248201527f546f74616c20736861726573206d75737420657175616c2074686520616d6f756044820152611b9d60f21b60648201526084016105c5565b600080549080610ad483611298565b909155505060008054808252600360208190526040909220908155600181018490556002810180546001600160a01b0319163317905590810187905560048101610b1e8782611300565b508451610b349060058301906020880190610c80565b508351610b4a9060068301906020870190610ce5565b5060078101805460ff191690556000838152600460208181526040808420845481546001818101845592875284872001558785526002835281852085549401805491820181558552919093200155815490517f8ce5e7234bed229fd5f0c86a4d076e8c3b5d8e555bcbb03bf7d097673f11450191610bd191869033908c908c908c90611449565b60405180910390a150505050505050565b60008281526002602052604090206003015460ff16610c135760405162461bcd60e51b81526004016105c5906113f3565b600082815260026020818152604080842090920180546001810182559084529083200180546001600160a01b0319166001600160a01b0385169081179091559051909184917f8687f797d234fb59c25420d127fa79ab62b2395085c93cca00b3001119c465b09190a35050565b828054828255906000526020600020908101928215610cd5579160200282015b82811115610cd557825182546001600160a01b0319166001600160a01b03909116178255602090920191600190910190610ca0565b50610ce1929150610d20565b5090565b828054828255906000526020600020908101928215610cd5579160200282015b82811115610cd5578251825591602001919060010190610d05565b5b80821115610ce15760008155600101610d21565b80356001600160a01b0381168114610d4c57600080fd5b919050565b60008060408385031215610d6457600080fd5b82359150610d7460208401610d35565b90509250929050565b60008060408385031215610d9057600080fd5b50508035926020909101359150565b600060208284031215610db157600080fd5b5035919050565b6000815180845260005b81811015610dde57602081850181015186830182015201610dc2565b506000602082860101526020601f19601f83011685010191505092915050565b600081518084526020840193506020830160005b82811015610e395781516001600160a01b0316865260209586019590910190600101610e12565b5093949350505050565b87815260018060a01b038716602082015285604082015260e060608201526000610e7060e0830187610db8565b8281036080840152610e828187610dfe565b60a0840195909552505090151560c09091015295945050505050565b838152606060208201526000610eb76060830185610db8565b90508215156040830152949350505050565b86815285602082015260018060a01b038516604082015283606082015260c060808201526000610efc60c0830185610db8565b905082151560a0830152979650505050505050565b848152608060208201526000610f2a6080830186610db8565b8281036040840152610f3c8186610dfe565b83810360608501528451808252602080870193509091019060005b81811015610f75578351835260209384019390920191600101610f57565b509098975050505050505050565b634e487b7160e01b600052604160045260246000fd5b604051601f8201601f191681016001600160401b0381118282101715610fc157610fc1610f83565b604052919050565b600082601f830112610fda57600080fd5b81356001600160401b03811115610ff357610ff3610f83565b611006601f8201601f1916602001610f99565b81815284602083860101111561101b57600080fd5b816020850160208301376000918101602001919091529392505050565b60006001600160401b0382111561105157611051610f83565b5060051b60200190565b600082601f83011261106c57600080fd5b813561107f61107a82611038565b610f99565b8082825260208201915060208360051b8601019250858311156110a157600080fd5b602085015b838110156110c5576110b781610d35565b8352602092830192016110a6565b5095945050505050565b600080604083850312156110e257600080fd5b82356001600160401b038111156110f857600080fd5b61110485828601610fc9565b92505060208301356001600160401b0381111561112057600080fd5b61112c8582860161105b565b9150509250929050565b600080600080600060a0868803121561114e57600080fd5b8535945060208601356001600160401b0381111561116b57600080fd5b61117788828901610fc9565b94505060408601356001600160401b0381111561119357600080fd5b61119f8882890161105b565b93505060608601356001600160401b038111156111bb57600080fd5b8601601f810188136111cc57600080fd5b80356111da61107a82611038565b8082825260208201915060208360051b85010192508a8311156111fc57600080fd5b6020840193505b8284101561121e578335825260209384019390910190611203565b979a96995094976080013595945050505050565b634e487b7160e01b600052603260045260246000fd5b600181811c9082168061125c57607f821691505b60208210810361127c57634e487b7160e01b600052602260045260246000fd5b50919050565b634e487b7160e01b600052601160045260246000fd5b6000600182016112aa576112aa611282565b5060010190565b601f8211156112fb57806000526020600020601f840160051c810160208510156112d85750805b601f840160051c820191505b818110156112f857600081556001016112e4565b50505b505050565b81516001600160401b0381111561131957611319610f83565b61132d816113278454611248565b846112b1565b6020601f82116001811461136157600083156113495750848201515b600019600385901b1c1916600184901b1784556112f8565b600084815260208120601f198516915b828110156113915787850151825560209485019460019092019101611371565b50848210156113af5786840151600019600387901b60f8161c191681555b50505050600190811b01905550565b8381526060602082015260006113d76060830185610db8565b82810360408401526113e98185610dfe565b9695505050505050565b60208082526023908201527f47726f757020646f6573206e6f74206578697374206f7220697320696e61637460408201526269766560e81b606082015260800190565b8082018082111561025f5761025f611282565b86815285602082015260018060a01b038516604082015283606082015260c06080820152600061147c60c0830185610db8565b82810360a084015261148e8185610dfe565b999850505050505050505056fea2646970667358221220c287a4688ff49a57e9a68974bdfbdad5230495ad3b776cf0a31ba194dfc6406864736f6c634300081a0033",
  "linkReferences": {},
  "deployedLinkReferences": {}
}