{
  "_format": "hh-sol-artifact-1",
  "contractName": "ExpenseShare",
  "sourceName": "contracts/ExpenseShare.sol",
  "abi": [
    {
      "anonymous": false,
      "inputs": [
        {
          "indexed": true,
          "internalType": "address",
          "name": "debtor",
          "type": "address"
        },
        {
          "indexed": true,
          "internalType": "address",
          "name": "creditor",
          "type": "address"
        },
        {
          "indexed": false,
          "internalType": "uint256",
          "name": "amount",
          "type": "uint256"
        }
      ],
      "name": "DebtRepaid",
      "type": "event"
    },
    {
      "anonymous": false,
      "inputs": [
        {
          "indexed": false,
          "internalType": "uint256",
          "name": "id",
          "type": "uint256"
        },
        {
          "indexed": false,
          "internalType": "uint256",
          "name": "groupId",
          "type": "uint256"
        },
        {
          "indexed": false,
          "internalType": "address",
          "name": "payer",
          "type": "address"
        },
        {
          "indexed": false,
          "internalType": "uint256",
          "name": "amount",
          "type": "uint256"
        },
        {
          "indexed": false,
          "internalType": "string",
          "name": "description",
          "type": "string"
        },
        {
          "indexed": false,
          "internalType": "address[]",
          "name": "participants",
          "type": "address[]"
        }
      ],
      "name": "ExpenseCreated",
      "type": "event"
    },
    {
      "anonymous": false,
      "inputs": [
        {
          "indexed": true,
          "internalType": "uint256",
          "name": "expenseId",
          "type": "uint256"
        },
        {
          "indexed": true,
          "internalType": "address",
          "name": "payer",
          "type": "address"
        }
      ],
      "name": "ExpenseSettled",
      "type": "event"
    },
    {
      "anonymous": false,
      "inputs": [
        {
          "indexed": false,
          "internalType": "uint256",
          "name": "expenseId",
          "type": "uint256"
        },
        {
          "indexed": false,
          "internalType": "string",
          "name": "attestationId",
          "type": "string"
        },
        {
          "indexed": false,
          "internalType": "string",
          "name": "schemaId",
          "type": "string"
        },
        {
          "indexed": false,
          "internalType": "string",
          "name": "indexingValue",
          "type": "string"
        }
      ],
      "name": "ExpenseUpdatedWithAttestation",
      "type": "event"
    },
    {
      "anonymous": false,
      "inputs": [
        {
          "indexed": false,
          "internalType": "uint256",
          "name": "id",
          "type": "uint256"
        },
        {
          "indexed": false,
          "internalType": "string",
          "name": "name",
          "type": "string"
        },
        {
          "indexed": false,
          "internalType": "address[]",
          "name": "members",
          "type": "address[]"
        }
      ],
      "name": "GroupCreated",
      "type": "event"
    },
    {
      "anonymous": false,
      "inputs": [
        {
          "indexed": true,
          "internalType": "uint256",
          "name": "groupId",
          "type": "uint256"
        },
        {
          "indexed": true,
          "internalType": "address",
          "name": "newMember",
          "type": "address"
        }
      ],
      "name": "MemberAddedToGroup",
      "type": "event"
    },
    {
      "inputs": [
        {
          "internalType": "uint256",
          "name": "_groupId",
          "type": "uint256"
        },
        {
          "internalType": "address",
          "name": "_newMember",
          "type": "address"
        }
      ],
      "name": "addMemberToGroup",
      "outputs": [],
      "stateMutability": "nonpayable",
      "type": "function"
    },
    {
      "inputs": [
        {
          "internalType": "uint256",
          "name": "_amount",
          "type": "uint256"
        },
        {
          "internalType": "string",
          "name": "_description",
          "type": "string"
        },
        {
          "internalType": "address[]",
          "name": "_participants",
          "type": "address[]"
        },
        {
          "internalType": "uint256[]",
          "name": "_shares",
          "type": "uint256[]"
        },
        {
          "internalType": "uint256",
          "name": "_groupId",
          "type": "uint256"
        }
      ],
      "name": "createExpense",
      "outputs": [
        {
          "internalType": "uint256",
          "name": "",
          "type": "uint256"
        }
      ],
      "stateMutability": "nonpayable",
      "type": "function"
    },
    {
      "inputs": [
        {
          "internalType": "string",
          "name": "_name",
          "type": "string"
        },
        {
          "internalType": "address[]",
          "name": "_members",
          "type": "address[]"
        }
      ],
      "name": "createGroup",
      "outputs": [],
      "stateMutability": "nonpayable",
      "type": "function"
    },
    {
      "inputs": [
        {
          "internalType": "address",
          "name": "",
          "type": "address"
        },
        {
          "internalType": "address",
          "name": "",
          "type": "address"
        }
      ],
      "name": "debts",
      "outputs": [
        {
          "internalType": "uint256",
          "name": "",
          "type": "uint256"
        }
      ],
      "stateMutability": "view",
      "type": "function"
    },
    {
      "inputs": [],
      "name": "expenseCount",
      "outputs": [
        {
          "internalType": "uint256",
          "name": "",
          "type": "uint256"
        }
      ],
      "stateMutability": "view",
      "type": "function"
    },
    {
      "inputs": [
        {
          "internalType": "uint256",
          "name": "",
          "type": "uint256"
        }
      ],
      "name": "expenses",
      "outputs": [
        {
          "internalType": "uint256",
          "name": "id",
          "type": "uint256"
        },
        {
          "internalType": "uint256",
          "name": "groupId",
          "type": "uint256"
        },
        {
          "internalType": "address",
          "name": "payer",
          "type": "address"
        },
        {
          "internalType": "uint256",
          "name": "amount",
          "type": "uint256"
        },
        {
          "internalType": "string",
          "name": "description",
          "type": "string"
        },
        {
          "internalType": "bool",
          "name": "isSettled",
          "type": "bool"
        },
        {
          "internalType": "string",
          "name": "attestationId",
          "type": "string"
        },
        {
          "internalType": "string",
          "name": "schemaId",
          "type": "string"
        },
        {
          "internalType": "string",
          "name": "indexingValue",
          "type": "string"
        }
      ],
      "stateMutability": "view",
      "type": "function"
    },
    {
      "inputs": [
        {
          "internalType": "address",
          "name": "_debtor",
          "type": "address"
        },
        {
          "internalType": "address",
          "name": "_creditor",
          "type": "address"
        }
      ],
      "name": "getDebtBetween",
      "outputs": [
        {
          "internalType": "uint256",
          "name": "",
          "type": "uint256"
        }
      ],
      "stateMutability": "view",
      "type": "function"
    },
    {
      "inputs": [
        {
          "internalType": "uint256",
          "name": "_expenseId",
          "type": "uint256"
        }
      ],
      "name": "getExpense",
      "outputs": [
        {
          "internalType": "uint256",
          "name": "id",
          "type": "uint256"
        },
        {
          "internalType": "uint256",
          "name": "groupId",
          "type": "uint256"
        },
        {
          "internalType": "address",
          "name": "payer",
          "type": "address"
        },
        {
          "internalType": "uint256",
          "name": "amount",
          "type": "uint256"
        },
        {
          "internalType": "string",
          "name": "description",
          "type": "string"
        },
        {
          "internalType": "address[]",
          "name": "participants",
          "type": "address[]"
        },
        {
          "internalType": "bool",
          "name": "isSettled",
          "type": "bool"
        }
      ],
      "stateMutability": "view",
      "type": "function"
    },
    {
      "inputs": [
        {
          "internalType": "uint256",
          "name": "_groupId",
          "type": "uint256"
        }
      ],
      "name": "getGroup",
      "outputs": [
        {
          "internalType": "uint256",
          "name": "id",
          "type": "uint256"
        },
        {
          "internalType": "string",
          "name": "name",
          "type": "string"
        },
        {
          "internalType": "address[]",
          "name": "members",
          "type": "address[]"
        },
        {
          "internalType": "uint256[]",
          "name": "expenseIds",
          "type": "uint256[]"
        }
      ],
      "stateMutability": "view",
      "type": "function"
    },
    {
      "inputs": [
        {
          "internalType": "uint256",
          "name": "_expenseId",
          "type": "uint256"
        },
        {
          "internalType": "address",
          "name": "_user",
          "type": "address"
        }
      ],
      "name": "getUserShare",
      "outputs": [
        {
          "internalType": "uint256",
          "name": "",
          "type": "uint256"
        }
      ],
      "stateMutability": "view",
      "type": "function"
    },
    {
      "inputs": [],
      "name": "groupCount",
      "outputs": [
        {
          "internalType": "uint256",
          "name": "",
          "type": "uint256"
        }
      ],
      "stateMutability": "view",
      "type": "function"
    },
    {
      "inputs": [
        {
          "internalType": "uint256",
          "name": "",
          "type": "uint256"
        },
        {
          "internalType": "uint256",
          "name": "",
          "type": "uint256"
        }
      ],
      "name": "groupExpenses",
      "outputs": [
        {
          "internalType": "uint256",
          "name": "",
          "type": "uint256"
        }
      ],
      "stateMutability": "view",
      "type": "function"
    },
    {
      "inputs": [
        {
          "internalType": "uint256",
          "name": "",
          "type": "uint256"
        }
      ],
      "name": "groups",
      "outputs": [
        {
          "internalType": "uint256",
          "name": "id",
          "type": "uint256"
        },
        {
          "internalType": "string",
          "name": "name",
          "type": "string"
        },
        {
          "internalType": "bool",
          "name": "isActive",
          "type": "bool"
        }
      ],
      "stateMutability": "view",
      "type": "function"
    },
    {
      "inputs": [
        {
          "internalType": "address",
          "name": "_creditor",
          "type": "address"
        },
        {
          "internalType": "uint256",
          "name": "_amount",
          "type": "uint256"
        }
      ],
      "name": "repayDebt",
      "outputs": [],
      "stateMutability": "payable",
      "type": "function"
    },
    {
      "inputs": [
        {
          "internalType": "uint256",
          "name": "_expenseId",
          "type": "uint256"
        }
      ],
      "name": "settleExpense",
      "outputs": [],
      "stateMutability": "nonpayable",
      "type": "function"
    },
    {
      "inputs": [
        {
          "internalType": "uint256",
          "name": "_expenseId",
          "type": "uint256"
        },
        {
          "internalType": "string",
          "name": "_attestationId",
          "type": "string"
        },
        {
          "internalType": "string",
          "name": "_schemaId",
          "type": "string"
        },
        {
          "internalType": "string",
          "name": "_indexingValue",
          "type": "string"
        }
      ],
      "name": "updateExpenseWithAttestation",
      "outputs": [],
      "stateMutability": "nonpayable",
      "type": "function"
    }
  ],
  "bytecode": "0x6080604052600080556000600155348015601857600080fd5b50611db5806100286000396000f3fe6080604052600436106100c35760003560e01c80630ea5e462146100c85780631ce56ba6146100fb5780634ac1c33d1461011b57806352e7df5d14610153578063735e5db61461016957806379e20bdc1461019c5780638f23b326146101b157806396324bd4146101c7578063a5d5329b146101f6578063af4afe0a1461023c578063b11bc7bf14610271578063c0a7540b14610291578063ceb60654146102b1578063cfbe575c146102e1578063e2b17b4b14610301578063ffa5431c14610321575b600080fd5b3480156100d457600080fd5b506100e86100e3366004611473565b610341565b6040519081526020015b60405180910390f35b34801561010757600080fd5b506100e861011636600461149f565b6103d4565b34801561012757600080fd5b506100e86101363660046114c1565b600560209081526000928352604080842090915290825290205481565b34801561015f57600080fd5b506100e860005481565b34801561017557600080fd5b506101896101843660046114eb565b610405565b6040516100f2979695949392919061158f565b6101af6101aa3660046115eb565b61055a565b005b3480156101bd57600080fd5b506100e860015481565b3480156101d357600080fd5b506101e76101e23660046114eb565b6107b7565b6040516100f293929190611615565b34801561020257600080fd5b506100e86102113660046114c1565b6001600160a01b03918216600090815260056020908152604080832093909416825291909152205490565b34801561024857600080fd5b5061025c6102573660046114eb565b610865565b6040516100f299989796959493929190611640565b34801561027d57600080fd5b506101af61028c36600461177d565b610ae4565b34801561029d57600080fd5b506101af6102ac3660046114eb565b610c17565b3480156102bd57600080fd5b506102d16102cc3660046114eb565b610d21565b6040516100f29493929190611818565b3480156102ed57600080fd5b506101af6102fc366004611921565b610e9a565b34801561030d57600080fd5b506100e861031c366004611988565b610f95565b34801561032d57600080fd5b506101af61033c366004611473565b611304565b6000828152600360205260408120815b60058201548110156103c757836001600160a01b031682600501828154811061037c5761037c611a84565b6000918252602090912001546001600160a01b0316036103bf578160060181815481106103ab576103ab611a84565b9060005260206000200154925050506103ce565b600101610351565b5060009150505b92915050565b600460205281600052604060002081815481106103f057600080fd5b90600052602060002001600091509150505481565b6000818152600360208190526040822080546001820154600283015493830154600784015460048501805488978897889760609788978a979396929591946001600160a01b031693909291600588019160ff1690839061046490611a9a565b80601f016020809104026020016040519081016040528092919081815260200182805461049090611a9a565b80156104dd5780601f106104b2576101008083540402835291602001916104dd565b820191906000526020600020905b8154815290600101906020018083116104c057829003601f168201915b505050505092508180548060200260200160405190810160405280929190818152602001828054801561053957602002820191906000526020600020905b81546001600160a01b0316815260019091019060200180831161051b575b50505050509150975097509750975097509750975050919395979092949650565b6001600160a01b0382166105b05760405162461bcd60e51b8152602060048201526018602482015277496e76616c6964206372656469746f72206164647265737360401b60448201526064015b60405180910390fd5b600081116105d05760405162461bcd60e51b81526004016105a790611ad4565b3360009081526005602090815260408083206001600160a01b03861684529091529020548111156106395760405162461bcd60e51b8152602060048201526013602482015272105b5bdd5b9d08195e18d959591cc81919589d606a1b60448201526064016105a7565b80341461069b5760405162461bcd60e51b815260206004820152602a60248201527f53656e7420616d6f756e7420646f6573206e6f74206d6174636820616d6f756e6044820152697420746f20726570617960b01b60648201526084016105a7565b3360009081526005602090815260408083206001600160a01b0386168452909152812080548392906106ce908490611b1f565b90915550506040516000906001600160a01b0384169083908381818185875af1925050503d806000811461071e576040519150601f19603f3d011682016040523d82523d6000602084013e610723565b606091505b50509050806107725760405162461bcd60e51b815260206004820152601b60248201527a151c985b9cd9995c881d1bc818dc99591a5d1bdc8819985a5b1959602a1b60448201526064016105a7565b6040518281526001600160a01b0384169033907feef1a28252f7c3266ccea3202ee9693f0834485bc3551310a406e04829c7e2cf9060200160405180910390a3505050565b600260205260009081526040902080546001820180549192916107d990611a9a565b80601f016020809104026020016040519081016040528092919081815260200182805461080590611a9a565b80156108525780601f1061082757610100808354040283529160200191610852565b820191906000526020600020905b81548152906001019060200180831161083557829003601f168201915b5050506003909301549192505060ff1683565b600360208190526000918252604090912080546001820154600283015493830154600484018054939592946001600160a01b03909316939192916108a890611a9a565b80601f01602080910402602001604051908101604052809291908181526020018280546108d490611a9a565b80156109215780601f106108f657610100808354040283529160200191610921565b820191906000526020600020905b81548152906001019060200180831161090457829003601f168201915b5050506007840154600885018054949560ff90921694919350915061094590611a9a565b80601f016020809104026020016040519081016040528092919081815260200182805461097190611a9a565b80156109be5780601f10610993576101008083540402835291602001916109be565b820191906000526020600020905b8154815290600101906020018083116109a157829003601f168201915b5050505050908060090180546109d390611a9a565b80601f01602080910402602001604051908101604052809291908181526020018280546109ff90611a9a565b8015610a4c5780601f10610a2157610100808354040283529160200191610a4c565b820191906000526020600020905b815481529060010190602001808311610a2f57829003601f168201915b50505050509080600a018054610a6190611a9a565b80601f0160208091040260200160405190810160405280929190818152602001828054610a8d90611a9a565b8015610ada5780601f10610aaf57610100808354040283529160200191610ada565b820191906000526020600020905b815481529060010190602001808311610abd57829003601f168201915b5050505050905089565b60008481526003602052604081208054909103610b3c5760405162461bcd60e51b8152602060048201526016602482015275115e1c195b9cd948191bd95cc81b9bdd08195e1a5cdd60521b60448201526064016105a7565b60028101546001600160a01b03163314610ba65760405162461bcd60e51b815260206004820152602560248201527f4f6e6c79207468652070617965722063616e207570646174652074686520657860448201526470656e736560d81b60648201526084016105a7565b60088101610bb48582611b81565b5060098101610bc38482611b81565b50600a8101610bd28382611b81565b507fa78125ff33768c3ed8e18251b1352866934e5f8a47adb21ee56db7d2bfb6162a85858585604051610c089493929190611c3f565b60405180910390a15050505050565b6000818152600360205260409020600781015460ff1615610c775760405162461bcd60e51b815260206004820152601a602482015279115e1c195b9cd9481a5cc8185b1c9958591e481cd95d1d1b195960321b60448201526064016105a7565b60028101546001600160a01b03163314610ce15760405162461bcd60e51b815260206004820152602560248201527f4f6e6c79207468652070617965722063616e20736574746c652074686520657860448201526470656e736560d81b60648201526084016105a7565b60078101805460ff19166001179055604051339083907f90b1c950bb4e0d689c0164f9f527af58d7069572b37c28705ab4cb07079b91ce90600090a35050565b6000606080606060006002600087815260200190815260200160002090508060000154816001018260020183600401828054610d5c90611a9a565b80601f0160208091040260200160405190810160405280929190818152602001828054610d8890611a9a565b8015610dd55780601f10610daa57610100808354040283529160200191610dd5565b820191906000526020600020905b815481529060010190602001808311610db857829003601f168201915b5050505050925081805480602002602001604051908101604052809291908181526020018280548015610e3157602002820191906000526020600020905b81546001600160a01b03168152600190910190602001808311610e13575b5050505050915080805480602002602001604051908101604052809291908181526020018280548015610e8357602002820191906000526020600020905b815481526020019060010190808311610e6f575b505050505090509450945094509450509193509193565b6000815111610ef75760405162461bcd60e51b815260206004820152602360248201527f47726f7570206d7573742068617665206174206c65617374206f6e65206d656d6044820152623132b960e91b60648201526084016105a7565b60018054906000610f0783611c89565b9091555050600180546000818152600260205260409020908155908101610f2e8482611b81565b508151610f4490600283019060208501906113a2565b5060038101805460ff1916600117905580546040517fdcaff575ef76f47649a61504175df180ccee594cb97cefdf450012ba8260f9a691610f889186908690611ca2565b60405180910390a1505050565b6000808611610fb65760405162461bcd60e51b81526004016105a790611ad4565b60008451116110165760405162461bcd60e51b815260206004820152602660248201527f5468657265206d757374206265206174206c65617374206f6e6520706172746960448201526518da5c185b9d60d21b60648201526084016105a7565b60008281526002602052604090206003015460ff166110475760405162461bcd60e51b81526004016105a790611cd7565b82518451146110a85760405162461bcd60e51b815260206004820152602760248201527f5061727469636970616e747320616e6420736861726573206c656e677468206d6044820152660d2e6dac2e8c6d60cb1b60648201526084016105a7565b6000805b84518110156110e4578481815181106110c7576110c7611a84565b6020026020010151826110da9190611d1a565b91506001016110ac565b5086811461113f5760405162461bcd60e51b815260206004820152602260248201527f546f74616c20736861726573206d75737420657175616c2074686520616d6f756044820152611b9d60f21b60648201526084016105a7565b60008054908061114e83611c89565b909155505060008054808252600360208190526040909220908155600181018590556002810180546001600160a01b03191633179055908101889055600481016111988882611b81565b5085516111ae90600583019060208901906113a2565b5084516111c49060068301906020880190611407565b5060078101805460ff1916905560005b86518110156112755760008782815181106111f1576111f1611a84565b60200260200101519050600087838151811061120f5761120f611a84565b60200260200101519050336001600160a01b0316826001600160a01b03161461126b576001600160a01b038216600090815260056020908152604080832033845290915281208054839290611265908490611d1a565b90915550505b50506001016111d4565b506000848152600460208181526040808420845481546001818101845592875284872001558885526002835281852085549401805491820181558552919093200155815490517f8ce5e7234bed229fd5f0c86a4d076e8c3b5d8e555bcbb03bf7d097673f114501916112f091879033908d908d908d90611d2d565b60405180910390a154979650505050505050565b60008281526002602052604090206003015460ff166113355760405162461bcd60e51b81526004016105a790611cd7565b600082815260026020818152604080842090920180546001810182559084529083200180546001600160a01b0319166001600160a01b0385169081179091559051909184917f8687f797d234fb59c25420d127fa79ab62b2395085c93cca00b3001119c465b09190a35050565b8280548282559060005260206000209081019282156113f7579160200282015b828111156113f757825182546001600160a01b0319166001600160a01b039091161782556020909201916001909101906113c2565b50611403929150611442565b5090565b8280548282559060005260206000209081019282156113f7579160200282015b828111156113f7578251825591602001919060010190611427565b5b808211156114035760008155600101611443565b80356001600160a01b038116811461146e57600080fd5b919050565b6000806040838503121561148657600080fd5b8235915061149660208401611457565b90509250929050565b600080604083850312156114b257600080fd5b50508035926020909101359150565b600080604083850312156114d457600080fd5b6114dd83611457565b915061149660208401611457565b6000602082840312156114fd57600080fd5b5035919050565b6000815180845260005b8181101561152a5760208185018101518683018201520161150e565b506000602082860101526020601f19601f83011685010191505092915050565b600081518084526020840193506020830160005b828110156115855781516001600160a01b031686526020958601959091019060010161155e565b5093949350505050565b87815286602082015260018060a01b038616604082015284606082015260e0608082015260006115c260e0830186611504565b82810360a08401526115d4818661154a565b91505082151560c083015298975050505050505050565b600080604083850312156115fe57600080fd5b61160783611457565b946020939093013593505050565b83815260606020820152600061162e6060830185611504565b90508215156040830152949350505050565b89815288602082015260018060a01b038816604082015286606082015261012060808201526000611675610120830188611504565b86151560a084015282810360c084015261168f8187611504565b905082810360e08401526116a38186611504565b90508281036101008401526116b88185611504565b9c9b505050505050505050505050565b634e487b7160e01b600052604160045260246000fd5b604051601f8201601f191681016001600160401b0381118282101715611706576117066116c8565b604052919050565b600082601f83011261171f57600080fd5b81356001600160401b03811115611738576117386116c8565b61174b601f8201601f19166020016116de565b81815284602083860101111561176057600080fd5b816020850160208301376000918101602001919091529392505050565b6000806000806080858703121561179357600080fd5b8435935060208501356001600160401b038111156117b057600080fd5b6117bc8782880161170e565b93505060408501356001600160401b038111156117d857600080fd5b6117e48782880161170e565b92505060608501356001600160401b0381111561180057600080fd5b61180c8782880161170e565b91505092959194509250565b8481526080602082015260006118316080830186611504565b8281036040840152611843818661154a565b83810360608501528451808252602080870193509091019060005b8181101561187c57835183526020938401939092019160010161185e565b509098975050505050505050565b60006001600160401b038211156118a3576118a36116c8565b5060051b60200190565b600082601f8301126118be57600080fd5b81356118d16118cc8261188a565b6116de565b8082825260208201915060208360051b8601019250858311156118f357600080fd5b602085015b838110156119175761190981611457565b8352602092830192016118f8565b5095945050505050565b6000806040838503121561193457600080fd5b82356001600160401b0381111561194a57600080fd5b6119568582860161170e565b92505060208301356001600160401b0381111561197257600080fd5b61197e858286016118ad565b9150509250929050565b600080600080600060a086880312156119a057600080fd5b8535945060208601356001600160401b038111156119bd57600080fd5b6119c98882890161170e565b94505060408601356001600160401b038111156119e557600080fd5b6119f1888289016118ad565b93505060608601356001600160401b03811115611a0d57600080fd5b8601601f81018813611a1e57600080fd5b8035611a2c6118cc8261188a565b8082825260208201915060208360051b85010192508a831115611a4e57600080fd5b6020840193505b82841015611a70578335825260209384019390910190611a55565b979a96995094976080013595945050505050565b634e487b7160e01b600052603260045260246000fd5b600181811c90821680611aae57607f821691505b602082108103611ace57634e487b7160e01b600052602260045260246000fd5b50919050565b6020808252818101527f416d6f756e74206d7573742062652067726561746572207468616e207a65726f604082015260600190565b634e487b7160e01b600052601160045260246000fd5b818103818111156103ce576103ce611b09565b601f821115611b7c57806000526020600020601f840160051c81016020851015611b595750805b601f840160051c820191505b81811015611b795760008155600101611b65565b50505b505050565b81516001600160401b03811115611b9a57611b9a6116c8565b611bae81611ba88454611a9a565b84611b32565b6020601f821160018114611be25760008315611bca5750848201515b600019600385901b1c1916600184901b178455611b79565b600084815260208120601f198516915b82811015611c125787850151825560209485019460019092019101611bf2565b5084821015611c305786840151600019600387901b60f8161c191681555b50505050600190811b01905550565b848152608060208201526000611c586080830186611504565b8281036040840152611c6a8186611504565b90508281036060840152611c7e8185611504565b979650505050505050565b600060018201611c9b57611c9b611b09565b5060010190565b838152606060208201526000611cbb6060830185611504565b8281036040840152611ccd818561154a565b9695505050505050565b60208082526023908201527f47726f757020646f6573206e6f74206578697374206f7220697320696e61637460408201526269766560e81b606082015260800190565b808201808211156103ce576103ce611b09565b86815285602082015260018060a01b038516604082015283606082015260c060808201526000611d6060c0830185611504565b82810360a0840152611d72818561154a565b999850505050505050505056fea2646970667358221220d7ea4d624ed52e87dfe32bf189e51b2b5a95a6ad68e0abec837e49fd400c694764736f6c634300081a0033",
  "linkReferences": {},
  "deployedLinkReferences": {}
}