{
  "_format": "hh-sol-artifact-1",
  "contractName": "ExpenseShare",
  "sourceName": "contracts/ExpenseShare.sol",
  "abi": [
    {
      "anonymous": false,
      "inputs": [
        {
          "indexed": false,
          "internalType": "uint256",
          "name": "id",
          "type": "uint256"
        },
        {
          "indexed": false,
          "internalType": "address",
          "name": "payer",
          "type": "address"
        },
        {
          "indexed": false,
          "internalType": "uint256",
          "name": "amount",
          "type": "uint256"
        },
        {
          "indexed": false,
          "internalType": "string",
          "name": "description",
          "type": "string"
        },
        {
          "indexed": false,
          "internalType": "address[]",
          "name": "participants",
          "type": "address[]"
        }
      ],
      "name": "ExpenseCreated",
      "type": "event"
    },
    {
      "inputs": [
        {
          "internalType": "uint256",
          "name": "_amount",
          "type": "uint256"
        },
        {
          "internalType": "string",
          "name": "_description",
          "type": "string"
        },
        {
          "internalType": "address[]",
          "name": "_participants",
          "type": "address[]"
        }
      ],
      "name": "createExpense",
      "outputs": [],
      "stateMutability": "nonpayable",
      "type": "function"
    },
    {
      "inputs": [],
      "name": "expenseCount",
      "outputs": [
        {
          "internalType": "uint256",
          "name": "",
          "type": "uint256"
        }
      ],
      "stateMutability": "view",
      "type": "function"
    },
    {
      "inputs": [
        {
          "internalType": "uint256",
          "name": "",
          "type": "uint256"
        }
      ],
      "name": "expenses",
      "outputs": [
        {
          "internalType": "uint256",
          "name": "id",
          "type": "uint256"
        },
        {
          "internalType": "address",
          "name": "payer",
          "type": "address"
        },
        {
          "internalType": "uint256",
          "name": "amount",
          "type": "uint256"
        },
        {
          "internalType": "string",
          "name": "description",
          "type": "string"
        },
        {
          "internalType": "bool",
          "name": "isSettled",
          "type": "bool"
        }
      ],
      "stateMutability": "view",
      "type": "function"
    },
    {
      "inputs": [],
      "name": "groupCount",
      "outputs": [
        {
          "internalType": "uint256",
          "name": "",
          "type": "uint256"
        }
      ],
      "stateMutability": "view",
      "type": "function"
    }
  ],
  "bytecode": "0x6080604052600080556000600155348015601857600080fd5b506107c6806100286000396000f3fe608060405234801561001057600080fd5b506004361061004c5760003560e01c806352e7df5d1461005157806353c94a0d1461006d5780638f23b32614610082578063af4afe0a1461008b575b600080fd5b61005a60005481565b6040519081526020015b60405180910390f35b61008061007b36600461043b565b6100af565b005b61005a60015481565b61009e610099366004610507565b61021f565b604051610064959493929190610566565b600083116101045760405162461bcd60e51b815260206004820181905260248201527f416d6f756e74206d7573742062652067726561746572207468616e207a65726f60448201526064015b60405180910390fd5b60008151116101645760405162461bcd60e51b815260206004820152602660248201527f5468657265206d757374206265206174206c65617374206f6e6520706172746960448201526518da5c185b9d60d21b60648201526084016100fb565b600080549080610173836105a7565b9091555050600080548082526002602081905260409092209081556001810180546001600160a01b03191633179055908101849055600381016101b68482610657565b5081516101cc90600483019060208501906102e4565b5060058101805460ff1916905580546040517f28efa0b1f902f00397c429952f520ad1864880687bb466b43e9a41ea04723e8f91610211913390889088908890610715565b60405180910390a150505050565b6002602081905260009182526040909120805460018201549282015460038301805492946001600160a01b0316939192610258906105ce565b80601f0160208091040260200160405190810160405280929190818152602001828054610284906105ce565b80156102d15780601f106102a6576101008083540402835291602001916102d1565b820191906000526020600020905b8154815290600101906020018083116102b457829003601f168201915b5050506005909301549192505060ff1685565b828054828255906000526020600020908101928215610339579160200282015b8281111561033957825182546001600160a01b0319166001600160a01b03909116178255602090920191600190910190610304565b50610345929150610349565b5090565b5b80821115610345576000815560010161034a565b634e487b7160e01b600052604160045260246000fd5b604051601f8201601f191681016001600160401b038111828210171561039c5761039c61035e565b604052919050565b600082601f8301126103b557600080fd5b81356001600160401b038111156103ce576103ce61035e565b8060051b6103de60208201610374565b918252602081850181019290810190868411156103fa57600080fd5b6020860192505b838310156104315782356001600160a01b038116811461042057600080fd5b825260209283019290910190610401565b9695505050505050565b60008060006060848603121561045057600080fd5b8335925060208401356001600160401b0381111561046d57600080fd5b8401601f8101861361047e57600080fd5b80356001600160401b038111156104975761049761035e565b6104aa601f8201601f1916602001610374565b8181528760208385010111156104bf57600080fd5b8160208401602083013760009181016020019190915292505060408401356001600160401b038111156104f157600080fd5b6104fd868287016103a4565b9150509250925092565b60006020828403121561051957600080fd5b5035919050565b6000815180845260005b818110156105465760208185018101518683018201520161052a565b506000602082860101526020601f19601f83011685010191505092915050565b85815260018060a01b038516602082015283604082015260a06060820152600061059360a0830185610520565b905082151560808301529695505050505050565b6000600182016105c757634e487b7160e01b600052601160045260246000fd5b5060010190565b600181811c908216806105e257607f821691505b60208210810361060257634e487b7160e01b600052602260045260246000fd5b50919050565b601f82111561065257806000526020600020601f840160051c8101602085101561062f5750805b601f840160051c820191505b8181101561064f576000815560010161063b565b50505b505050565b81516001600160401b038111156106705761067061035e565b6106848161067e84546105ce565b84610608565b6020601f8211600181146106b857600083156106a05750848201515b600019600385901b1c1916600184901b17845561064f565b600084815260208120601f198516915b828110156106e857878501518255602094850194600190920191016106c8565b50848210156107065786840151600019600387901b60f8161c191681555b50505050600190811b01905550565b85815260018060a01b038516602082015283604082015260a06060820152600061074260a0830185610520565b82810360808401528351808252602080860192019060005b818110156107815783516001600160a01b031683526020938401939092019160010161075a565b5090999850505050505050505056fea2646970667358221220444b7d35ff6af63dfd55d6166bce5870069e7d912e442d05b118ecc57269316664736f6c634300081a0033",
  "linkReferences": {},
  "deployedLinkReferences": {}
}